:020000040000FA
:020000000528D1
:08000800610003018500860080
:10001000831603018600FC308500831203019000E3
:1000200005191528851D1B287A28851918285F2889
:10003000051A10284428323094007E2085140514B7
:100040000510851037214A212421EE20D1205D2181
:100050007021C621BE20D120940B1D28323094007F
:100060007E2085140514051085100121E120AB20A8
:10007000D1201121AB20D120C621A9212421BC21CE
:100080009621940B30281028013086008F200230F2
:1000900086008F20043086008F20083086008F2055
:1000A000103086008F20203086008F204030860060
:1000B0008F20803086008F2000308600102801308D
:1000C0008600862002308600862004308600862046
:1000D000083086008620103086008620203086007A
:1000E00086204030860086208030860086200030C2
:1000F00086001028FF3086008F2010286430920080
:10010000851005140510920B8128080032309300E9
:10011000851405140510930B89289F2008003230A0
:100120009300851405148510051405109F20930B6A
:100130009428080032309300930B9A28080002306C
:100140009100A720910BA128051405100800920129
:10015000920BA82808003E3086009F204130860080
:100160009F20413086009F20413086009F20223012
:1001700086009F20003086009F20080041308600C6
:100180009F207F3086009F20413086009F20413095
:1001900086009F203E3086009F20003086009F20F2
:1001A00008007F3086009F20493086009F2049301C
:1001B00086009F20493086009F20003086009F20C7
:1001C0000800413086009F207F3086009F2041300C
:1001D00086009F20003086009F2008003030860077
:1001E0009F20413086009F20413086009F203F3075
:1001F00086009F20013086009F20003086009F20CF
:1002000008007F3086009F20403086009F204030CD
:1002100086009F20403086009F20003086009F206F
:1002200008007F3086009F20023086009F20043027
:1002300086009F20083086009F207F3086009F2008
:10024000003086009F2008003E3086009F2041300D
:1002500086009F20413086009F20413086009F20ED
:100260003E3086009F20003086009F2008007F30AF
:1002700086009F20093086009F20093086009F203D
:10028000093086009F20063086009F2000308600BF
:100290009F2008007F3086009F20093086009F2025
:1002A000193086009F20393086009F204630860016
:1002B0009F20003086009F200800013086009F208C
:1002C000013086009F207F3086009F20013086000D
:1002D0009F20013086009F20003086009F2008006C
:1002E000263086009F20493086009F2049308600B6
:1002F0009F20493086009F20323086009F200030AA
:1003000086009F2008001F3086009F202030860036
:100310009F20403086009F20203086009F201F3085
:1003200086009F20003086009F200800363086001F
:100330009F20493086009F20493086009F20493009
:1003400086009F20323086009F20003086009F204C
:100350000800423086009F20613086009F20513087
:1003600086009F20493086009F20463086009F20CF
:10037000003086009F200800023086009F207F30DA
:1003800086009F20003086009F20080000308600F5
:100390009F20003086009F20003086009F200800AC
:02400E00F23F7F
:00000001FF
